:020000040000FA
:060000000A128A110C280F
:10000800FE00030EF0000A08F1000A128A150D28F6
:100018000A128A110F28831603130A168A11D72782
:100028000A128A11A5000A168A11D8270A128A11FB
:10003800A6000A168A11D9270A128A11A7000A16D9
:100048008A11DA270A128A11A800A001A101A201C7
:10005800A301A40183120313E701E801E901EA01FE
:10006800EB01EC01ED01EE01EF01FA01FB01830167
:100078000A128A15D1288312031329088039FF0030
:100088007F08B3002908AE002E07FF007F08B900DB
:10009800A81F4F2850285128391439080319552802
:1000A80056286528390A031D5A285B28632800301A
:1000B800A9000030A8000030A7000030A600A8174B
:1000C8006D280030A9000030A8000030A7000030DB
:1000D800A6002D088039FF007F08B3062D08AE0062
:1000E8002E07FF007F08B400AC1F7B287C287D28E2
:1000F800341434080319812882289128340A031DEE
:10010800862887288F280030AD000030AC000030EA
:10011800AB000030AA00AC1799280030AD000030C1
:10012800AC000030AB000030AA00340803199D2849
:100138009E28A3283908031DA228A328AC2800302C
:10014800A9000030A8000030A7000030A6009F2BAF
:100158002608FF007F08F2002C080A128A15512091
:100168000A128A11730883120313BF007208BE00B3
:100178003E08AE00AF01B001B1013108B800300847
:10018800B7002F08B6002E08B5003F08AE00AF0133
:10019800B001B1013108BD003008BC002F08BB0018
:1001A8002E08BA002708FF007F08F2002B080A1261
:1001B8008A1551200A128A11730883120313BF008B
:1001C8007208BE003E08AE00AF01B001B1012E08B2
:1001D800B5072F0803110318013E0319F428B607C1
:1001E800300803110318013E0319FB28B70731082B
:1001F80003110318013E03190229B8073F08AE008E
:10020800AF01B001B1012E08BA072F080311031876
:10021800013E03191029BB07300803110318013EDA
:1002280003191729BC07310803110318013E0319E4
:100238001E29BD072808FF007F08F2002A080A12B5
:100248008A1551200A128A11730883120313BF00FA
:100258007208BE003E08AE00AF01B001B1012E0821
:10026800B5072F0803110318013E03193C29B607E7
:10027800300803110318013E03194329B707310851
:1002880003110318013E03194A29B8073F08AE00B5
:10029800AF01B001B1012E08BA072F0803110318E6
:1002A800013E03195829BB07300803110318013E02
:1002B80003195F29BC07310803110318013E03190C
:1002C8006629BD070830AE000310B50DB60DB70D91
:1002D800B80DAE0B68292708FF007F08F2002A082E
:1002E8000A128A1551200A128A11730883120313FD
:1002F800BF007208BE003E08AE003F08AF00B00164
:10030800B1012E08B5072F0803110318013E031980
:100318008E29B607300803110318013E03199529E1
:10032800B707310803110318013E03199C29B807C0
:100338002608FF007F08F2002B080A128A155120B0
:100348000A128A11730883120313BF007208BE00D1
:100358003E08AE003F08AF00B001B1012E08B50756
:100368002F0803110318013E0319BB29B6073008EB
:1003780003110318013E0319C229B70731080311F5
:100388000318013E0319C929B8070830AE00031045
:10039800B50DB60DB70DB80DAE0BCB292608FF006D
:1003A8007F08F2002A080A128A1551200A128A11B7
:1003B800730883120313BF007208BE003E08AE0024
:1003C8003F08AF00B001B1012E08B5072F0803118F
:1003D8000318013E0319F129B60730080311031861
:1003E800013E0319F829B707310803110318013E24
:1003F8000319FF29B8072708FF007F08F2002C0817
:100408000A128A1551200A128A11730883120313DB
:10041800BF007208BE003E08AE003F08AF00B00142
:10042800B1012E08BA072F0803110318013E03195A
:100438001E2ABB07300803110318013E0319252A99
:10044800BC07310803110318013E03192C2ABD0704
:100458002808FF007F08F2002B080A128A1551208D
:100468000A128A11730883120313BF007208BE00B0
:100478003E08AE003F08AF00B001B1012E08BA0730
:100488002F0803110318013E03194B2ABB07300834
:1004980003110318013E0319522ABC07310803113E
:1004A8000318013E0319592ABD072808FF007F08D1
:1004B800F2002C080A128A1551200A128A117308B0
:1004C80083120313BF007208BE003E08AE003F0847
:1004D800AF00B001B10108300310AE0DAF0DB00D83
:1004E800B10DFF3E031D702A2E08BA072F0803110D
:1004F8000318013E0319812ABB07300803110318AA
:10050800013E0319882ABC07310803110318013E6C
:1005180003198F2ABD073508AE003608AF00370823
:10052800B0003808B10018300310B10CB00CAF0C93
:10053800AE0CFF3E031D982A2E08BA072F08031198
:100548000318013E0319A92ABB0730080311031831
:10055800013E0319B02ABC07310803110318013EF4
:100568000319B72ABD070830AE000310B50DB60D44
:10057800B70DB80DAE0BB92A39083407AE00AF0174
:10058800AF0D2E08823EBE002F080318013EFF3E25
:10059800BF00EB2A0130AE000310BA0DBB0DBC0D35
:1005A800BD0DAE0BD02AB81FDA2ADB2ADC2A3A1492
:1005B8000130AE000310B50DB60DB70DB80DAE0B7A
:1005C800DE2AFF30BE070318BF0AFF30BF07BC1F73
:1005D800EE2AEF2ACE2AB401B81FF32AF42A102BE8
:1005E800FF303505AE00FF303605AF00FF30370568
:1005F800B0007F303805B100310830042F042E04D4
:100608000319072B082B0B2BB401B40A102B3A1C27
:100618000E2B0F2B102B082B34080319142B152B1A
:10062800462B0130BA07003003180130BB070030F1
:1006380003180130BC07003003180130BD073D1C0A
:10064800262B272B462B3A08AE003B08AF003C0868
:10065800B0003D08B1000130B200310DB10CB00C52
:10066800AF0CAE0CB20B312B3108BD003008BC000A
:100678002F08BB002E08BA000130BE070318BF0AB6
:100688000030BF073F08803AFF0080307F02031D1B
:100698004F2BFF303E02031C522B532B5E2B7F3017
:1006A80083120313BD008030BC000030BB00003053
:1006B800BA00932B831203133F08803AFF0080305F
:1006C8007F02031D692B01303E0203186C2B6D2B32
:1006D800792B003083120313BD000030BC000030BA
:1006E800BB000030BA00B301932B831203133E08FA
:1006F800FF007F08B900FF30BA05FF30BB057F3027
:10070800BC050030BD05391C8A2B8B2B8C2BBC17E4
:100718003908AE0003102E0CFF007F08BD00330817
:10072800FF007F08BD043D08A9003C08A8003B085D
:10073800A7003A08A600080083120313EE01EE0A88
:1007480083160313A401A40AFA0183120313E70111
:10075800E8018E2C02300A168A11E4270A128A113F
:10076800730883120313EA007208E9006908F200AB
:100778006A08F3000030F31BFF30F400F500013085
:100788000A128A116F260A128A1175088312031336
:10079800AD007408AC007308AB007208AA004030C2
:1007A800A900A030A8000030A7000030A6000A1257
:1007B8008A113F200A128A11831203132908C700DD
:1007C8002808C6002708C5002608C4004130C30011
:1007D8002330C200D730C1000A30C0000A128A157F
:1007E80023260A128A11831203134308DD004208E4
:1007F800DC004108DB004008DA000A128A15C4212F
:100808000A128A11831203135B08EA005A08E900E6
:100818001D2C0A128A15A4200A128A110A128A1596
:100828007A200A128A110130FF007F08831203130D
:10083800EB070A306B020318222C232C282C6F0399
:100848000319272C282C0D2CEB017A08013EFF00F8
:100858007F08FA0069086707E7006A0803186A0A48
:100868006807E8000A307A06031D3B2C3C2C8E2CC6
:100878006708F2006808F3000030F31BFF30F4004B
:10088800F50001300A128A116F260A128A117508BA
:1008980083120313AD007408AC007308AB00720830
:1008A800AA003F30A9008030A8000030A70000301F
:1008B800A6000A128A113F200A128A118312031312
:1008C8002908C7002808C6002708C5002608C4004C
:1008D8004130C3002030C2000030C1000030C000E9
:1008E8000A128A1523260A128A118312031343084F
:1008F800DD004208DC004108DB004008DA000A128B
:100908008A15C4210A128A11831203135B08E800AE
:100918005A08E7000A307A060319932C942C992C6C
:100928006F030319982C992CAE2B01300A128A15E3
:100938002B200A128A110A128A157A200A128A11A1
:100948007B08FA3E83120313E400FF3003180030DB
:10095800E5006808803AE6006508803A6602031DEB
:10096800B72C640867020318BA2CBB2CD02C83124E
:1009780003138716FB30FF007F088705FE30FF0052
:100988007F0887050A128A15A4200A128A110A12FA
:100998008A157A200A128A117B08053E83120313EE
:1009A800E400003003180130E5006808803AE600EA
:1009B8006508803A6602031DE32C64086702031C7D
:1009C800E62CE72C6E2E831203130715DF30FF0089
:1009D8007F08870500300A128A152B200A128A110F
:1009E800831203130714EE01EE0A83160313A401FE
:1009F800A40A0A128A15A4200A128A110A128A1550
:100A08007A200A128A11502E0A128A15A4200A1274
:100A18008A110A128A157A200A128A11FA01831297
:100A28000313E701E801022E0A128A15A4200A120C
:100A38008A110A128A157A200A128A1102300A16B5
:100A48008A11E4270A128A11730883120313EA0031
:100A58007208E9006908F2006A08F3000030F31B25
:100A6800FF30F400F50001300A128A116F260A12CD
:100A78008A11750883120313AD007408AC0073085B
:100A8800AB007208AA004030A900A030A8000030CE
:100A9800A7000030A6000A128A113F200A128A1104
:100AA800831203132908C7002808C6002708C500B1
:100AB8002608C4004130C3002330C200D730C1002B
:100AC8000A30C0000A128A1523260A128A118312D4
:100AD80003134308DD004208DC004108DB0040083E
:100AE800DA000A128A15C4210A128A118312031322
:100AF8005B08EA005A08E900912D0A128A15A42019
:100B08000A128A110A128A157A200A128A110130E9
:100B1800FF007F0883120313EB070A306B020318E8
:100B2800962D972D9C2D6F0303199B2D9C2D812DA0
:100B3800EB017A08013EFF007F08FA0069086707A1
:100B4800E7006A0803186A0A6807E8000A307A06A4
:100B5800031DAF2DB02D022E6708F2006808F300C0
:100B68000030F31BFF30F400F50001300A128A113F
:100B78006F260A128A11750883120313AD007408D0
:100B8800AC007308AB007208AA003F30A90080309F
:100B9800A8000030A7000030A6000A128A113F20E2
:100BA8000A128A11831203132908C7002808C600ED
:100BB8002708C5002608C4004130C3002030C20001
:100BC8000030C1000030C0000A128A1523260A121C
:100BD8008A11831203134308DD004208DC00410830
:100BE800DB004008DA000A128A15C4210A128A11A9
:100BF800831203135B08E8005A08E7000A307A06F4
:100C08000319072E082E0D2E6F0303190C2E0D2E17
:100C1800182D0A128A157A200A128A117B08053EB5
:100C280083120313E400003003180130E50068085C
:100C3800803AE6006508803A6602031D252E64089E
:100C480067020318282E292E402E7B08FA3E8312AD
:100C58000313E400FF3003180030E5006808803A09
:100C6800E6006508803A6602031D3C2E64086702A8
:100C7800031C3F2E402E472E831203130715DF3027
:100C8800FF007F08870583120313071400300A1238
:100C98008A152B200A128A117B08FA3E8312031345
:100CA800E400FF3003180030E5006808803AE600E9
:100CB8006508803A6602031D632E64086702031CF8
:100CC800662E672E6E2E831203136F0303196D2E83
:100CD8006E2E082D080083120313A00020080319A4
:100CE800762E772E8B2EF51F7A2E7B2E8B2E720961
:100CF800A2007309A3007409A4007509A500A20A3B
:100D08000319A30A0319A40A0319A50A932E75083F
:100D1800A5007408A4007308A3007208A20075084F
:100D2800740473047204031D9A2E9B2EA42E0030A3
:100D3800F5000030F4000030F3000030F2002A2FF4
:100D48009630FF007F08A100B62E0130FF007F0813
:100D5800A10701300310A50CA40CA30CA20CFF3EA4
:100D6800031DAE2EFE302505031DBB2EBC2EA92E5D
:100D7800D82E0130FF007F08A1070130A2070030FC
:100D880003180130A307003003180130A40700300E
:100D980003180130A50701300310A50CA40CA30CFF
:100DA800A20CFF3E031DD02EFF302505031DDD2EAE
:100DB800DE2EBD2EEA2E0130A1020130F60003100E
:100DC800A20DA30DA40DA50DF60BE32EA41BED2E6D
:100DD800EE2EF42E023021020318F32EF42EDF2E0D
:100DE8002118F72EF82E002FFF30A205FF30A3059B
:100DF8007F30A405FF30A5050310A10C2108F600DB
:100E0800F701F801F90118300310F60DF70DF80D88
:100E1800F90DFF3E031D082F7608A2047708A304E6
:100E28007808A4047908A504200803191C2F1D2F8D
:100E3800222FF51F202F212F222FA5172508F50077
:100E48002408F4002308F3002208F2000800F60042
:100E58007603031D302F312F832F83120313061DB2
:100E6800362F372F832F7B08053EFF007F08FB00B6
:100E780028307B02031C412F422F482F47307B022A
:100E8800031C472F482F4C2F3C30FF007F08FB00E6
:100E98001230FF007F08F2003430FF007F08F300B3
:100EA8007B08FF007F08F400A0300A128A156B2126
:100EB8000A128A11FA01FA0AA5307A02031C652F70
:100EC800662F672F6C2F0130FF007F08FA07602F0D
:100ED8001230FF007F08F2003430FF007F08F30073
:100EE800A0300A128A1540220A128A11FF007F08D0
:100EF80083120313ED006D08FF007F08FB007608DE
:100F0800031D872F882FDA2F83120313861C8D2F3A
:100F18008E2FDA2F7B08FB3EFF007F08FB0028306E
:100F28007B02031C982F992F9F2F47307B02031CAD
:100F38009E2F9F2FA32F3C30FF007F08FB0012300D
:100F4800FF007F08F2003430FF007F08F3007B08C1
:100F5800FF007F08F400A0300A128A156B210A12DC
:100F68008A11FA01FA0AA5307A02031CBC2FBD2F98
:100F7800BE2FC32F0130FF007F08FA07B72F1230AA
:100F8800FF007F08F2003430FF007F08F300A03034
:100F98000A128A1540220A128A11FF007F0883125A
:100FA8000313ED006D08FF007F08FB000800F60141
:100FB800F60A0130FF007F08F607A5307602031C09
:100FC800E62FE72FDD2F1230FF007F08F2003430C4
:100FD800FF007F08F300A0300A128A1540220A1287
:100FE8008A11FF007F0883120313ED006D08FF00CC
:060FF8007F08FB00080069
:10100400DF30FF007F08831203138505EF30FF00F4
:101014007F0885050800831603132408031D13287D
:101024001428192883120313EF01EF0AEE01831227
:101034006E03031D1E281F282328EF0183160313A4
:10104400A4018B1071088A00700E8300FE0E7E0EC0
:101054000900F2007203031D302831284828831246
:1010640003136C08031D3728382839280617013064
:10107400FF007F08EC0702306C06031D422843285A
:101084004828BF30FF007F088605EC017208031D65
:101094004C284D2850288312031306170800831286
:1010A4000313A400A001A1017208F400F50174085F
:1010B400A2007508A300241C602861286728220860
:1010C400A0070318A10A2308A10701300310A20DE9
:1010D400A30DFF3E031D68280310A40C2408031D60
:1010E400742875285D282108F3002008F200080000
:1010F4001230FF007F08F2003430FF007F08F30055
:10110400A0300A128A1540220A128A15FF007F08AD
:1011140083120313ED006D08FF007F08FB007B08BA
:101124000A128A15BF220A128A157B080A128A1526
:1011340043230A128A1501300A128A15C7230A1298
:101144008A15080083120313061DA928AA28AE28AD
:101154008618AD28AE28D028033083120313AF00BD
:10116400D830AE004130AD00AD0BB628AE0BB6287A
:10117400AF0BB628831203138618C128C228C628C9
:10118400061DC528C628D0280A128A11DB270A1290
:101194008A150A128A154C240A128A150800831625
:1011A40003138101D0308B00CF30850018308700C5
:1011B400860106148614061586150616BF30FF0030
:1011C4007F08860588018312031386010A168A1193
:1011D400DB270A128A150430831603139300283080
:1011E400831203139400831203136F03031DFB285C
:1011F400FC2802290A128A11A0230A128A15F5284A
:1012040083160313A40183120313EE01DF30FF00DE
:101214007F088705FB30FF007F088705FE30FF004D
:101224007F0887050A128A1502200A128A15F528F2
:101234000A128A110C28F400831203130512851272
:1012440041293F30880069290630880069295B30CC
:10125400880069294F308800692966308800692927
:101264006D30880069297D3088006929073088003D
:1012740069297F30880069296F30880069297408DA
:10128400F200F3017308003A031949296929720825
:10129400003A03192329013A03192629033A0319A9
:1012A4002929013A03192C29073A03192F29013A4C
:1012B40003193229033A03193529013A0319382944
:1012C4000F3A03193B29013A03193E2969290808F1
:1012D4000800F500831603131114111872297329D9
:1012E4006F29831203138C11750893008C1D7B29BD
:1012F4007C2978298C1183160313111F82298329D1
:10130400892911151119872988298429C329720863
:101314008312031393008C1D902991298D298C111C
:1013240083160313111F972998299E291115111942
:101334009C299D299929C3297308831203139300B7
:101344008C1DA529A629A2298C1183160313111F0C
:10135400AC29AD29B32911151119B129B229AE2926
:10136400C32974088312031393008C1DBA29BB2963
:10137400B7298C118316031311151119C229C32916
:10138400BF2908000310831203135C0D5D0DFF00D9
:101394007F08E3006308031DD029D129DA2900302E
:1013A400DD000030DC000030DB000030DA003F2AD2
:1013B4005A08DE005B08DF005C08E0005D08E1001D
:1013C4001F300310E10CE00CDF0CDE0CFF3E031DAC
:1013D400E3295E08FF007F08E200DC17FF30DA052E
:1013E400FF30DB05FF30DC050030DD059630E3021D
:1013F400E31FFD29FE29182A6308803A973E031843
:10140400042A052A062AD12901300310DD0CDC0C3C
:10141400DB0CDA0CFF3E031D072A0130FF007F08B6
:10142400E307031D162A172A062A2F2A20306302EF
:10143400031C1D2A1E2A2A2AD1290130DE0003108A
:10144400DA0DDB0DDC0DDD0DDE0B212A0130E302AC
:101454006308031D2E2A2F2A1F2A62080319332A20
:10146400342A3F2ADA09DB09DC09DD09DA0A03191F
:10147400DB0A0319DC0A0319DD0A0800F5008316E8
:10148400031311141118472A482A442A83120313F8
:101494008C11750893008C1D502A512A4D2A8C11E9
:1014A40083160313111F572A582A5F2A111511197D
:1014B4005C2A5D2A592AFF30BE2A7208831203135C
:1014C40093008C1D662A672A632A8C1183160313E2
:1014D400111F6D2A6E2A742A11151119722A732A82
:1014E4006F2A5D2A73088312031393008C1D7B2AD1
:1014F4007C2A782A8C1183160313111F822A832ACB
:10150400892A11151119872A882A842A5D2A911497
:1015140091188D2A8E2A8A2A831203138C11750836
:10152400013E93008C1D972A982A942A8C118316C5
:101534000313111F9E2A9F2AA52A11151119A32AE4
:10154400A42AA02A5D2A9115141CA92AAA2AA62A2B
:10155400831203131308FF007F08F4008316031398
:1015640091161116111AB72AB82AB42A110811199A
:10157400BC2ABD2AB92A74080800F700F8011C2BFC
:1015840007300A128A151D210A128A15FF007F08E6
:10159400F800412B06300A128A151D210A128A15F9
:1015A400FF007F08F800412B07300A128A151D211D
:1015B4000A128A15FF007F08F800412B06300A1230
:1015C4008A151D210A128A15FF007F08F800412B95
:1015D40005300A128A151D210A128A15FF007F0898
:1015E400F800412B05300A128A151D210A128A15AA
:1015F400FF007F08F800412B04300A128A151D21D0
:101604000A128A15FF007F08F800412B04300A12E1
:101614008A151D210A128A15FF007F08F800412B44
:1016240003300A128A151D210A128A15FF007F0849
:10163400F800412B7708F500F6017608003A031903
:10164400242B412B7508233A0319122B0B3A031947
:10165400082B053A0319FE2A1F3A0319F42A053AFE
:101664000319EA2A0B3A0319E02A7D3A0319CC2A12
:10167400073A0319D62A0D3A0319C22A412B7808CE
:101684000800F700F801A02B05300A128A151D2165
:101694000A128A15FF007F08F800C52B05300A12CC
:1016A4008A151D210A128A15FF007F08F800C52B30
:1016B40000300A128A151D210A128A15FF007F08BC
:1016C400F800C52B00300A128A151D210A128A154A
:1016D400FF007F08F800C52B05300A128A151D216A
:1016E4000A128A15FF007F08F800C52B00300A1281
:1016F4008A151D210A128A15FF007F08F800C52BE0
:1017040005300A128A151D210A128A15FF007F0866
:10171400F800C52B00300A128A151D210A128A15F9
:10172400FF007F08F800C52B05300A128A151D2119
:101734000A128A15FF007F08F800C52B7708F50008
:10174400F6017608003A0319A82BC52B7508233A2D
:101754000319962B0B3A03198C2B053A0319822B88
:101764001F3A0319782B053A03196E2B0B3A031908
:10177400642B7D3A0319502B073A03195A2B0D3A5F
:101784000319462BC52B7808080083120313A30002
:101794001230FF007F08F2003430FF007F08F300AE
:1017A400A0300A128A1540220A128A15FF007F0807
:1017B40083120313ED006D08FF007F08A4002303C8
:1017C400031DE52BE62B162C24080A128A15BF22CA
:1017D4000A128A1583120313880005161A3083121D
:1017E4000313A100F730A000A00BF62BA10BF62BDE
:1017F400FB2B83120313051224080A128A154323B0
:101804000A128A1583120313880085161A3083126C
:101814000313A100F730A000A00B0E2CA10B0E2C7B
:10182400132C8312031385122308031D1A2C1B2C5B
:101834004B2C24080A128A15BF220A128A15831215
:101844000313880005121A3083120313A100F73022
:10185400A000A00B2B2CA10B2B2C302C83120313D8
:10186400051224080A128A1543230A128A158312C0
:101874000313880085121A3083120313A100F73072
:10188400A000A00B432CA10B432C482C8312031360
:10189400851208001230FF007F08F2003430FF0088
:1018A4007F08F300A0300A128A1540220A128A1512
:1018B400FF007F0883120313ED006D08FF007F080B
:1018C400FB00A901AA01AB011C2E01300A128A15E2
:1018D400C7230A128A15831203130619722C732C58
:1018E4002A2D861C762C772C342D2A2D01300A12B1
:1018F4008A15C7230A128A15831203138618832CA8
:10190400842C982C023083120313A7006C30A60099
:101914009F30A500A50B8C2CA60B8C2CA70B8C2C14
:1019240000300A128A112B270A128A158312031314
:1019340006199D2C9E2CB22C023083120313A7008F
:101944006C30A6009F30A500A50BA62CA60BA62CD8
:10195400A70BA62C01300A128A112B270A128A150A
:101964000130FF007F0883120313A90764302902A2
:10197400031CBD2CBE2C782CA901002D00300A12AA
:101984008A15C7230A128A15831203138618CB2CCF
:10199400CC2CE02C023083120313A7006C30A60079
:1019A4009F30A500A50BD42CA60BD42CA70BD42CAC
:1019B40000300A128A112B270A128A158312031384
:1019C4000619E52CE62CFA2C023083120313A70027
:1019D4006C30A6009F30A500A50BEE2CA60BEE2CB8
:1019E400A70BEE2C01300A128A112B270A128A1532
:1019F4000130FF007F0883120313AA0764302A0210
:101A0400031C052D062DC02CAA010130FF007F0800
:101A1400AB07AC01AC0A0130FF007F08AC07A5306E
:101A24002C02031C162D172D0D2D1230FF007F08DC
:101A3400F2003430FF007F08F300A0300A128A1548
:101A440040220A128A15FF007F0883120313ED0057
:101A540004302B02031C2F2D302DB82C0830FF002E
:101A64007F08AB000130FF007F08A907323029024C
:101A7400031C3D2D3E2D672CA901112E00300A12A6
:101A84008A15C7230A128A158312031306194B2DCC
:101A94004C2D032E861C4F2D502D0D2E032E013060
:101AA4000A128A15C7230A128A1583120313861889
:101AB4005C2D5D2D712D023083120313A7006C3051
:101AC400A6009F30A500A50B652DA60B652DA70BC1
:101AD400652D00300A128A112B270A128A158312E7
:101AE40003130619762D772D8B2D023083120313E1
:101AF400A7006C30A6009F30A500A50B7F2DA60B78
:101B04007F2DA70B7F2D01300A128A112B270A1271
:101B14008A150130FF007F0883120313A90764307C
:101B24002902031C962D972D512DA901D92D003082
:101B34000A128A15C7230A128A15831203138618F8
:101B4400A42DA52DB92D023083120313A7006C30E8
:101B5400A6009F30A500A50BAD2DA60BAD2DA70BA0
:101B6400AD2D00300A128A112B270A128A1583120E
:101B740003130619BE2DBF2DD32D02308312031378
:101B8400A7006C30A6009F30A500A50BC72DA60B9F
:101B9400C72DA70BC72D01300A128A112B270A1251
:101BA4008A150130FF007F0883120313AA076430EB
:101BB4002A02031CDE2DDF2D992DAA010130FF001E
:101BC4007F08AB07AC01AC0A0130FF007F08AC070B
:101BD400A5302C02031CEF2DF02DE62D1230FF0052
:101BE4007F08F2003430FF007F08F300A0300A12AF
:101BF4008A1540220A128A15FF007F0883120313F4
:101C0400ED0004302B02031C082E092E912D083000
:101C1400FF007F08AB000130FF007F08AA073230C5
:101C24002A02031C162E172E402D0130FF007F08B8
:101C3400AB07AA0105302B02031C212E222E382DBE
:101C440008008312031347088039FF007F08D1007E
:101C54004708C8004807FF007F08D800C61F332E76
:101C6400342E352E581458080319392E3A2E4A2E7C
:101C7400580A031D3E2E3F2E472E0030C700003069
:101C8400C6000030C5000030C400C617C701522E7C
:101C94000030C7000030C6000030C5000030C4006A
:101CA40043088039FF007F08D1064308C80048076D
:101CB400FF007F08D900C21F602E612E622E5914C6
:101CC40059080319662E672E772E590A031D6B2EA9
:101CD4006C2E742E0030C3000030C2000030C100EE
:101CE4000030C000C217C3017F2E0030C300003093
:101CF400C2000030C1000030C00043084204410467
:101D04004004031D862E872EA02E0030C70000300D
:101D1400C6000030C5000030C4008030C6047F30E7
:101D2400C7045108FF007F08C7044708C3004608DA
:101D3400C2004508C1004408C000FF2F5808031D15
:101D4400A42EA52EAE2E0030C3000030C2000030F9
:101D5400C1000030C000FF2F5808C800C90149085D
:101D6400CB0059084802CA00031CCB034A087F3E33
:101D7400D2004B080318013E003ED3004708D000B0
:101D84004608CF004508CE004408CD000030C70007
:101D94000030C6000030C5000030C4000030D70059
:101DA4000030D6000030D5000030D400D901242FF3
:101DB40059080319DE2EDF2EFF2E0130C800031050
:101DC400CD0DCE0DCF0DD00DC80BE12E0130C800C6
:101DD4000310C40DC50DC60DC70DC80BEA2ED71FC1
:101DE400F42EF52EF62E44140130C8000310D40D41
:101DF400D50DD60DD70DC80BF82E43085002031D80
:101E04000D2F42084F02031D0D2F41084E02031DE2
:101E14000D2F40084D02031C102F112F202F571790
:101E24004008CD024108031C410FCE024208031CA6
:101E3400420FCF024308031C430FD0020130FF00BE
:101E44007F08D9071A305902031C292F2A2FDA2EAA
:101E540050084F044E044D040319312F322F512FD3
:101E64005414512F0130C8000310C40DC50DC60D04
:101E7400C70DC80B362FD71F402F412F422F4414B4
:101E84000130C8000310D40DD50DD60DD70DC80BE5
:101E9400442FFF30D2070318D30AFF30D307C61FDD
:101EA400542F552F342FD901D71F592F5A2F762F3E
:101EB400FF305405C800FF305505C900FF305605F2
:101EC400CA007F305705CB004B084A044904480434
:101ED40003196D2F6E2F712FD901D90A762F441C47
:101EE400742F752F762F6E2F590803197A2F7B2F95
:101EF400AC2F0130C407003003180130C50700308F
:101F040003180130C607003003180130C707471C07
:101F14008C2F8D2FAC2F4408C8004508C9004608F3
:101F2400CA004708CB000130CC004B0DCB0CCA0CC7
:101F3400C90CC80CCC0B972F4B08C7004A08C60025
:101F44004908C5004808C4000130D2070318D30A61
:101F54000030D3075308803AFF0080307F02031D0E
:101F6400B52FFF305202031CB82FB92FC72FFF30F3
:101F740083120313D2000030D3000030C7000030B6
:101F8400C6000030C5000030C40083120313530898
:101F9400803AFF0080307F02031DD22F01305202AD
:101FA4000318D52FD62FE32F83120313D201D301A5
:101FB4000030C7000030C6000030C5000030C40047
:101FC400D101831203135208FF007F08D800581C64
:101FD400EC2FED2FEF2FC617F32F7F30FF007F0874
:101FE400C6055808C8000310480CFF007F08C70046
:0C1FF4005108FF007F08C704972E08006A
:102FAE003F3400347D340034C030831603139F0049
:102FBE009130831203139F000800F5008312031350
:102FCE009F140130F400750AEE2F0310F40DFF3E2E
:102FDE00031DEC2F7408FF007F089F041F19F82FA4
:102FEE00F92FF52F1E08F300831603131E08F200A7
:022FFE000800C9
:02400E00FA3F77
:00000001FF
